{
  "_format": "hh-sol-artifact-1",
  "contractName": "CardsAgainstHumanity",
  "sourceName": "contracts/CardsAgainstHumanity.sol",
  "abi": [
    {
      "inputs": [],
      "stateMutability": "nonpayable",
      "type": "constructor"
    },
    {
      "anonymous": false,
      "inputs": [
        {
          "indexed": true,
          "internalType": "address",
          "name": "owner",
          "type": "address"
        },
        {
          "indexed": true,
          "internalType": "address",
          "name": "approved",
          "type": "address"
        },
        {
          "indexed": true,
          "internalType": "uint256",
          "name": "tokenId",
          "type": "uint256"
        }
      ],
      "name": "Approval",
      "type": "event"
    },
    {
      "anonymous": false,
      "inputs": [
        {
          "indexed": true,
          "internalType": "address",
          "name": "owner",
          "type": "address"
        },
        {
          "indexed": true,
          "internalType": "address",
          "name": "operator",
          "type": "address"
        },
        {
          "indexed": false,
          "internalType": "bool",
          "name": "approved",
          "type": "bool"
        }
      ],
      "name": "ApprovalForAll",
      "type": "event"
    },
    {
      "anonymous": false,
      "inputs": [
        {
          "indexed": true,
          "internalType": "address",
          "name": "from",
          "type": "address"
        },
        {
          "indexed": true,
          "internalType": "address",
          "name": "to",
          "type": "address"
        },
        {
          "indexed": true,
          "internalType": "uint256",
          "name": "tokenId",
          "type": "uint256"
        }
      ],
      "name": "Transfer",
      "type": "event"
    },
    {
      "inputs": [
        {
          "internalType": "address",
          "name": "to",
          "type": "address"
        },
        {
          "internalType": "uint256",
          "name": "tokenId",
          "type": "uint256"
        }
      ],
      "name": "approve",
      "outputs": [],
      "stateMutability": "nonpayable",
      "type": "function"
    },
    {
      "inputs": [
        {
          "internalType": "address",
          "name": "owner",
          "type": "address"
        }
      ],
      "name": "balanceOf",
      "outputs": [
        {
          "internalType": "uint256",
          "name": "",
          "type": "uint256"
        }
      ],
      "stateMutability": "view",
      "type": "function"
    },
    {
      "inputs": [
        {
          "internalType": "address",
          "name": "to",
          "type": "address"
        }
      ],
      "name": "claimPack",
      "outputs": [],
      "stateMutability": "payable",
      "type": "function"
    },
    {
      "inputs": [],
      "name": "costOfPack",
      "outputs": [
        {
          "internalType": "uint256",
          "name": "",
          "type": "uint256"
        }
      ],
      "stateMutability": "view",
      "type": "function"
    },
    {
      "inputs": [
        {
          "internalType": "uint256",
          "name": "tokenId",
          "type": "uint256"
        }
      ],
      "name": "getApproved",
      "outputs": [
        {
          "internalType": "address",
          "name": "",
          "type": "address"
        }
      ],
      "stateMutability": "view",
      "type": "function"
    },
    {
      "inputs": [
        {
          "internalType": "uint256",
          "name": "tokenId",
          "type": "uint256"
        }
      ],
      "name": "getNumberOfBlanks",
      "outputs": [
        {
          "internalType": "uint256",
          "name": "",
          "type": "uint256"
        }
      ],
      "stateMutability": "view",
      "type": "function"
    },
    {
      "inputs": [
        {
          "internalType": "address",
          "name": "owner",
          "type": "address"
        },
        {
          "internalType": "address",
          "name": "operator",
          "type": "address"
        }
      ],
      "name": "isApprovedForAll",
      "outputs": [
        {
          "internalType": "bool",
          "name": "",
          "type": "bool"
        }
      ],
      "stateMutability": "view",
      "type": "function"
    },
    {
      "inputs": [],
      "name": "name",
      "outputs": [
        {
          "internalType": "string",
          "name": "",
          "type": "string"
        }
      ],
      "stateMutability": "view",
      "type": "function"
    },
    {
      "inputs": [],
      "name": "numCards",
      "outputs": [
        {
          "internalType": "uint256",
          "name": "",
          "type": "uint256"
        }
      ],
      "stateMutability": "view",
      "type": "function"
    },
    {
      "inputs": [
        {
          "internalType": "uint256",
          "name": "tokenId",
          "type": "uint256"
        }
      ],
      "name": "ownerOf",
      "outputs": [
        {
          "internalType": "address",
          "name": "",
          "type": "address"
        }
      ],
      "stateMutability": "view",
      "type": "function"
    },
    {
      "inputs": [
        {
          "internalType": "address",
          "name": "from",
          "type": "address"
        },
        {
          "internalType": "address",
          "name": "to",
          "type": "address"
        },
        {
          "internalType": "uint256",
          "name": "tokenId",
          "type": "uint256"
        }
      ],
      "name": "safeTransferFrom",
      "outputs": [],
      "stateMutability": "nonpayable",
      "type": "function"
    },
    {
      "inputs": [
        {
          "internalType": "address",
          "name": "from",
          "type": "address"
        },
        {
          "internalType": "address",
          "name": "to",
          "type": "address"
        },
        {
          "internalType": "uint256",
          "name": "tokenId",
          "type": "uint256"
        },
        {
          "internalType": "bytes",
          "name": "_data",
          "type": "bytes"
        }
      ],
      "name": "safeTransferFrom",
      "outputs": [],
      "stateMutability": "nonpayable",
      "type": "function"
    },
    {
      "inputs": [
        {
          "internalType": "address",
          "name": "operator",
          "type": "address"
        },
        {
          "internalType": "bool",
          "name": "approved",
          "type": "bool"
        }
      ],
      "name": "setApprovalForAll",
      "outputs": [],
      "stateMutability": "nonpayable",
      "type": "function"
    },
    {
      "inputs": [],
      "name": "sizeOfPack",
      "outputs": [
        {
          "internalType": "uint256",
          "name": "",
          "type": "uint256"
        }
      ],
      "stateMutability": "view",
      "type": "function"
    },
    {
      "inputs": [
        {
          "internalType": "bytes4",
          "name": "interfaceId",
          "type": "bytes4"
        }
      ],
      "name": "supportsInterface",
      "outputs": [
        {
          "internalType": "bool",
          "name": "",
          "type": "bool"
        }
      ],
      "stateMutability": "view",
      "type": "function"
    },
    {
      "inputs": [],
      "name": "symbol",
      "outputs": [
        {
          "internalType": "string",
          "name": "",
          "type": "string"
        }
      ],
      "stateMutability": "view",
      "type": "function"
    },
    {
      "inputs": [],
      "name": "tokenCounter",
      "outputs": [
        {
          "internalType": "uint256",
          "name": "",
          "type": "uint256"
        }
      ],
      "stateMutability": "view",
      "type": "function"
    },
    {
      "inputs": [
        {
          "internalType": "uint256",
          "name": "tokenId",
          "type": "uint256"
        }
      ],
      "name": "tokenURI",
      "outputs": [
        {
          "internalType": "string",
          "name": "",
          "type": "string"
        }
      ],
      "stateMutability": "view",
      "type": "function"
    },
    {
      "inputs": [
        {
          "internalType": "uint256",
          "name": "",
          "type": "uint256"
        }
      ],
      "name": "tokensWithOneBlank",
      "outputs": [
        {
          "internalType": "uint256",
          "name": "",
          "type": "uint256"
        }
      ],
      "stateMutability": "view",
      "type": "function"
    },
    {
      "inputs": [
        {
          "internalType": "uint256",
          "name": "",
          "type": "uint256"
        }
      ],
      "name": "tokensWithTwoBlanks",
      "outputs": [
        {
          "internalType": "uint256",
          "name": "",
          "type": "uint256"
        }
      ],
      "stateMutability": "view",
      "type": "function"
    },
    {
      "inputs": [
        {
          "internalType": "address",
          "name": "from",
          "type": "address"
        },
        {
          "internalType": "address",
          "name": "to",
          "type": "address"
        },
        {
          "internalType": "uint256",
          "name": "tokenId",
          "type": "uint256"
        }
      ],
      "name": "transferFrom",
      "outputs": [],
      "stateMutability": "nonpayable",
      "type": "function"
    }
  ],
  "bytecode": "0x6080604052600060065561163f6007556005600855600a600955604051806174c001604052806101eb61ffff16815260200161112f61ffff16815260200161056761ffff168152602001610e0c61ffff16815260200161074661ffff168152602001610f3661ffff1681526020016113bd61ffff16815260200161038d61ffff168152602001610cbb61ffff1681526020016101b661ffff16815260200161080b61ffff16815260200161139561ffff168152602001610af761ffff168152602001610d7d61ffff16815260200161052361ffff16815260200161119761ffff16815260200161083061ffff1681526020016104e961ffff168152602001610b1561ffff16815260200161129761ffff1681526020016101d361ffff16815260200161060061ffff16815260200161098561ffff16815260200161068d61ffff168152602001610e2a61ffff1681526020016115a961ffff168152602001610ae061ffff168152602001610af261ffff168152602001610ae161ffff16815260200161104f61ffff16815260200161109061ffff16815260200161087061ffff168152602001610d2261ffff16815260200161130f61ffff16815260200161029161ffff16815260200161131061ffff16815260200161065261ffff16815260200161081361ffff168152602001610d6661ffff168152602001610f7461ffff168152602001610d5f61ffff16815260200161062d61ffff16815260200161063f61ffff168152602001610f3d61ffff16815260200161037861ffff1681526020016113a561ffff168152602001610b8161ffff16815260200161124a61ffff168152602001610dd561ffff16815260200161129661ffff1681526020016111d161ffff16815260200160cb61ffff16815260200161094d61ffff1681526020016108c161ffff168152602001610ed561ffff1681526020016106f961ffff16815260200160a461ffff16815260200161062861ffff16815260200161096061ffff16815260200161031661ffff1681526020016113f761ffff168152602001610e5a61ffff16815260200161057d61ffff1681526020016102ff61ffff168152602001610df061ffff16815260200161041d61ffff16815260200161100561ffff1681526020016115eb61ffff16815260200161042961ffff168152602001610b2961ffff168152602001610e8c61ffff168152602001606561ffff16815260200160bc61ffff16815260200161076d61ffff1681526020016113d461ffff16815260200161035a61ffff168152602001610db661ffff16815260200161051261ffff1681526020016112f161ffff1681526020016110ff61ffff1681526020016103d161ffff168152602001600e61ffff1681526020016111ef61ffff16815260200161095461ffff1681526020016113b661ffff1681526020016107f661ffff16815260200161034961ffff168152602001610ca561ffff16815260200161065e61ffff168152602001610f7a61ffff16815260200161055661ffff1681526020016112d361ffff16815260200161092461ffff168152602001610b4c61ffff168152602001600561ffff168152602001610ff761ffff16815260200161119e61ffff168152602001610a4d61ffff1681526020016109e061ffff16815260200161066b61ffff168152602001610c2261ffff16815260200161114b61ffff1681526020016114c461ffff168152602001610fc161ffff16815260200161056a61ffff168152602001607461ffff1681526020016108ab61ffff16815260200161048961ffff16815260200161013761ffff16815260200161072a61ffff168152602001610e0d61ffff168152602001610eff61ffff1681526020016109b361ffff16815260200161051b61ffff16815260200161096461ffff16815260200160a861ffff16815260200161035661ffff16815260200161059961ffff168152602001610e7b61ffff16815260200161131261ffff168152602001610e4a61ffff16815260200161047361ffff1681526020016108ba61ffff1681526020016112f561ffff16815260200161127861ffff1681526020016110b261ffff168152602001610d7c61ffff168152602001610f6161ffff16815260200161050f61ffff1681526020016108c061ffff16815260200161091e61ffff1681526020016111bf61ffff1681526020016101e061ffff16815260200161089561ffff16815260200161161c61ffff168152602001610e2661ffff1681526020016105d861ffff1681526020016111fd61ffff168152602001610c8061ffff16815260200161162361ffff16815260200161059461ffff1681526020016115c461ffff168152602001610fef61ffff16815260200161093a61ffff1681526020016110f561ffff1681526020016106c761ffff168152602001610dcf61ffff16815260200161156f61ffff16815260200161057461ffff16815260200161159061ffff16815260200161084061ffff16815260200161017261ffff1681526020016102e261ffff168152602001610e4c61ffff16815260200161097761ffff1681526020016111c261ffff1681526020016109fe61ffff168152602001610f3161ffff168152602001610e7061ffff1681526020016103ab61ffff16815260200161101761ffff16815260200161033b61ffff1681526020016102f861ffff168152602001610ede61ffff168152602001610ad961ffff16815260200160d861ffff168152602001610d3f61ffff1681526020016108bf61ffff1681526020016105bb61ffff1681526020016106df61ffff1681526020016101aa61ffff1681526020016113fa61ffff168152602001610ecf61ffff16815260200161090261ffff168152602001610b4861ffff168152602001610dde61ffff16815260200161067f61ffff168152602001610e9e61ffff168152602001610d7961ffff16815260200161130161ffff16815260200161148b61ffff16815260200161111161ffff1681526020016111d861ffff16815260200161157961ffff1681526020016113e461ffff16815260200161130861ffff1681526020016110ab61ffff168152602001610c3661ffff168152602001604c61ffff1681526020016109c061ffff16815260200161057761ffff16815260200161100961ffff16815260200161019d61ffff168152602001610e6e61ffff168152602001610e0e61ffff168152602001610ccb61ffff16815260200161014f61ffff16815260200161101261ffff16815260200161072b61ffff16815260200161032061ffff168152602001610a2a61ffff16815260200161107161ffff168152602001610c7d61ffff1681526020016114a161ffff168152602001610aea61ffff168152602001604961ffff16815260200161036761ffff1681526020016106fd61ffff1681526020016108fc61ffff16815260200161105561ffff16815260200161095e61ffff168152602001610a5a61ffff16815260200160d061ffff16815260200161069861ffff16815260200161011861ffff16815260200161141761ffff16815260200161153861ffff16815260200161099661ffff16815260200161010861ffff16815260200161090461ffff168152602001610d4261ffff168152602001604361ffff16815260200161078b61ffff168152602001610a7461ffff1681526020016105a461ffff16815260200161016e61ffff168152602001610b0761ffff1681526020016109fb61ffff168152602001610c7661ffff16815260200161135e61ffff16815260200161014761ffff16815260200161124361ffff16815260200161152561ffff1681526020016114e061ffff16815260200161158d61ffff1681526020016113e761ffff1681526020016109ce61ffff16815260200161104361ffff168152602001610b9361ffff168152602001610adc61ffff1681526020016113ff61ffff168152602001610e3f61ffff16815260200161037961ffff16815260200161031861ffff16815260200161014961ffff16815260200161016461ffff168152602001610c0a61ffff16815260200161059f61ffff16815260200161110a61ffff168152602001610f6761ffff16815260200161136261ffff16815260200161080f61ffff1681526020016113d561ffff1681526020016102ad61ffff16815260200161118d61ffff16815260200161075061ffff1681526020016102e361ffff168152602001610a2861ffff16815260200161025061ffff168152602001610cea61ffff16815260200161055b61ffff1681526020016105b561ffff168152602001610b1961ffff16815260200161128761ffff1681526020016104ae61ffff16815260200161038561ffff16815260200161108e61ffff16815260200161128461ffff168152602001610bac61ffff16815260200161133561ffff16815260200161114f61ffff16815260200161064661ffff168152602001610ca661ffff16815260200161102561ffff168152602001610bf561ffff16815260200161142c61ffff16815260200161093761ffff16815260200161050e61ffff16815260200161121161ffff1681526020016113fd61ffff16815260200161131161ffff16815260200161149c61ffff16815260200161070661ffff16815260200161054d61ffff16815260200161043f61ffff168152602001609d61ffff1681526020016106c661ffff16815260200161105461ffff1681526020016110e961ffff16815260200161126961ffff16815260200161077361ffff16815260200161058661ffff168152602001610ecc61ffff16815260200161020d61ffff16815260200161116561ffff16815260200161106c61ffff16815260200161013661ffff168152602001610b2d61ffff168152602001610e9161ffff168152602001610b0361ffff16815260200161015561ffff1681526020016113c761ffff1681526020016115b461ffff168152602001610be761ffff1681526020016110d061ffff168152602001610ee261ffff168152602001610bf461ffff1681526020016102b161ffff168152602001610fd961ffff1681526020016113d261ffff16815260200161157c61ffff168152602001610ed061ffff168152602001610b8861ffff168152602001604861ffff16815260200161152661ffff16815260200161147e61ffff16815260200161143861ffff168152602001610ee161ffff16815260200160e061ffff168152602001610a7361ffff1681526020016104c461ffff16815260200161153b61ffff16815260200161091061ffff168152602001610d2561ffff16815260200161028b61ffff168152602001610d5261ffff16815260200161055061ffff16815260200161090361ffff168152602001610f4b61ffff168152602001610dc561ffff16815260200161092d61ffff168152602001610e2d61ffff1681526020016107fa61ffff16815260200161076661ffff168152602001610f8161ffff1681526020016102d061ffff16815260200161127361ffff168152602001610b6861ffff168152602001604061ffff168152602001610c7461ffff16815260200161064861ffff168152602001610eb161ffff16815260200161023361ffff16815260200161033661ffff1681526020016112de61ffff16815260200161071e61ffff168152602001610b2f61ffff16815260200161140b61ffff1681526020016109c261ffff168152602001610b3261ffff1681526020016102be61ffff16815260200161103d61ffff168152602001610b5f61ffff168152602001610a4461ffff16815260200161104561ffff168152602001610ded61ffff16815260200161134a61ffff1681526020016109bd61ffff16815260200161123b61ffff16815260200161114261ffff1681526020016110c061ffff1681526020016106e061ffff16815260200161123661ffff168152602001610eae61ffff16815260200161095661ffff168152602001610a3961ffff168152602001610e8e61ffff16815260200161037d61ffff168152602001610d3161ffff168152602001603a61ffff168152602001610fd761ffff16815260200161153361ffff168152602001610e0361ffff1681526020016107fc61ffff16815260200161151161ffff16815260200161132c61ffff16815260200160e361ffff1681526020016102dc61ffff168152602001610b9f61ffff168152602001610b3a61ffff16815260200161047861ffff168152602001610e7961ffff1681526020016112ce61ffff168152602001610c2561ffff16815260200161089461ffff168152602001610de561ffff16815260200161054061ffff1681526020016103c961ffff1681526020016104e561ffff16815260200161138561ffff16815260200161147161ffff16815260200161056161ffff1681526020016113a861ffff16815260200161119061ffff16815260200161019661ffff16815260200161161061ffff16815260200161080761ffff16815260200161104661ffff16815260200161063261ffff168152602001610cb261ffff168152602001606f61ffff1681526020016102c561ffff16815260200161065861ffff16815260200161137461ffff16815260200161138061ffff16815260200161107761ffff168152602001610eb561ffff16815260200161077161ffff16815260200161080a61ffff16815260200161051f61ffff16815260200161062a61ffff16815260200161160861ffff16815260200161080c61ffff1681526020016109ea61ffff16815260200161121f61ffff168152602001610b4661ffff16815260200161045a61ffff16815260200161022a61ffff168152602001610e4261ffff16815260200161111e61ffff168152602001610cb961ffff1681526020016114ee61ffff168152602001610fcf61ffff16815260200160ff61ffff16815260200161120c61ffff1681526020016108c261ffff1681526020016106ba61ffff168152602001610a4961ffff1681526020016115e161ffff16815260200161163661ffff168152602001610b0b61ffff1681526020016114cb61ffff168152602001610a5e61ffff1681526020016113eb61ffff16815260200161114861ffff16815260200161154c61ffff168152602001610b0f61ffff16815260200161061661ffff168152602001602761ffff16815260200161039161ffff168152602001610f0361ffff16815260200161032b61ffff168152602001601261ffff16815260200161112761ffff168152602001610db761ffff1681526020016104b061ffff168152602001610c9361ffff16815260200160f761ffff16815260200161070a61ffff1681526020016107a461ffff16815260200161016c61ffff168152602001610a2f61ffff168152602001610a8561ffff168152602001610dbb61ffff16815260200161063761ffff16815260200161017d61ffff1681526020016104ef61ffff168152602001610e5c61ffff1681526020016108ea61ffff16815260200161051461ffff168152602001610f2261ffff168152602001610f5361ffff168152602001610e0a61ffff16815260200161115c61ffff1681526020016103ee61ffff1681526020016110f661ffff168152602001610e8461ffff1681526020016114a861ffff16815260200161147461ffff16815260200161029661ffff168152602001610b0161ffff16815260200161120661ffff16815260200161156461ffff1681526020016115fd61ffff168152602001610dc961ffff168152602001610b3c61ffff168152602001610a5461ffff168152602001610bfd61ffff168152602001610c6161ffff16815260200161039d61ffff16815260200160fe61ffff168152602001606e61ffff1681526020016105cd61ffff168152602001610cc161ffff16815260200161075561ffff16815260200161030b61ffff1681526020016102c161ffff168152602001610ea861ffff1681526020016109c861ffff16815260200161100361ffff1681526020016114d161ffff16815260200161036a61ffff168152602001610e6361ffff16815260200161136061ffff16815260200161040861ffff16815260200161146161ffff1681526020016103a561ffff1681526020016103b661ffff1681526020016115d561ffff168152602001609b61ffff16815260200161146461ffff1681526020016102cf61ffff168152602001610d2361ffff168152602001610acd61ffff16815260200161010e61ffff1681526020016115b761ffff16815260200161046561ffff16815260200161110861ffff1681526020016115a361ffff16815260200161112e61ffff168152602001610cb461ffff168152602001610b4e61ffff168152602001610f2e61ffff16815260200161093661ffff16815260200161122861ffff16815260200161060661ffff16815260200161138161ffff168152602001610c8761ffff16815260200161100f61ffff16815260200161096e61ffff16815260200161067c61ffff168152602001610e8261ffff16815260200161021861ffff16815260200161065961ffff168152602001610c0f61ffff1681526020016107de61ffff1681526020016106f061ffff16815260200161011461ffff16815260200161101561ffff1681526020016112c861ffff1681526020016112f661ffff168152602001610fd261ffff168152602001610eda61ffff16815260200161143361ffff16815260200161065461ffff16815260200161058061ffff168152602001610ff261ffff168152602001610add61ffff168152602001610aaa61ffff1681526020016115c261ffff16815260200161040761ffff16815260200161092261ffff16815260200161092561ffff168152602001610d9661ffff16815260200161121c61ffff16815260200161062261ffff168152602001610ec761ffff168152602001605661ffff168152602001610bae61ffff16815260200160cc61ffff1681526020016112d061ffff168152602001610e9061ffff1681526020016110e861ffff168152602001610cdb61ffff1681526020016113b961ffff16815260200161129d61ffff168152602001610db461ffff16815260200161101161ffff16815260200161140961ffff16815260200161068761ffff16815260200161053461ffff16815260200161117b61ffff1681526020016106d761ffff1681526020016102b461ffff16815260200161148561ffff16815260200161070161ffff168152602001610aae61ffff1681526020016107dc61ffff168152602001610a2d61ffff16815260200161110f61ffff16815260200161074a61ffff16815260200161147d61ffff1681526020016104af61ffff168152602001610e8a61ffff1681526020016105f961ffff168152602001610f5861ffff168152602001610d8861ffff16815260200161099a61ffff16815260200161156761ffff16815260200161077861ffff168152602001610bbc61ffff16815260200161022661ffff16815260200161129a61ffff16815260200161016661ffff168152602001610dae61ffff168152602001605061ffff1681526020016110b961ffff1681526020016112f961ffff16815260200161038161ffff168152602001610d5061ffff1681526020016104cd61ffff16815260200161010561ffff1681526020016110f761ffff168152602001610c6361ffff168152602001610c4561ffff16815260200161045661ffff168152602001610d0c61ffff16815260200161045c61ffff16815260200161077061ffff1681526020016102c861ffff168152602001610bdb61ffff16815260200161104e61ffff16815260200161144661ffff168152602001610ed761ffff168152602001600061ffff16815260200161069061ffff16815260200161123061ffff16815260200161048161ffff16815260200161076a61ffff1681526020016108c861ffff16815260200161122b61ffff168152602001610ce761ffff16815260200161126661ffff168152602001610b6d61ffff168152602001610fa261ffff16815260200161061e61ffff168152602001610d0161ffff1681526020016114c161ffff1681526020016102dd61ffff168152602001600a61ffff16815260200161078961ffff16815260200161073661ffff1681526020016105ee61ffff16815260200161101961ffff16815260200161038061ffff1681526020016105eb61ffff16815260200161050861ffff16815260200161052861ffff16815260200161018b61ffff16815260200161073e61ffff168152602001610f1261ffff16815260200161031f61ffff16815260200161065561ffff16815260200161156e61ffff16815260200160e461ffff16815260200161126561ffff1681526020016107c261ffff16815260200161025c61ffff1681526020016110f461ffff16815260200161079c61ffff168152602001610c2061ffff1681526020016103e861ffff1681526020016107d761ffff16815260200161154561ffff168152602001610cd361ffff16815260200160d561ffff16815260200161057361ffff16815260200161028661ffff1681526020016115ac61ffff16815260200161137861ffff16815260200161066761ffff16815260200161108c61ffff16815260200161024b61ffff16815260200161083561ffff16815260200161120461ffff16815260200161068f61ffff1681526020016107f261ffff16815260200161133361ffff16815260200161088a61ffff16815260200161144d61ffff168152602001610ade61ffff168152602001610d8061ffff168152602001610f5161ffff16815260200161092e61ffff16815260200161148261ffff16815260200160e761ffff168152602001602861ffff1681526020016105a961ffff1681526020016111c861ffff1681526020016104d461ffff1681526020016109e361ffff16815260200161140661ffff1681526020016105e861ffff168152602001610b7361ffff168152602001610a5561ffff16815260200161082c61ffff16815260200161132661ffff168152602001610fac61ffff16815260200161151f61ffff1681526020016109c761ffff168152602001610fc361ffff168152602001610bb561ffff168152602001610d3761ffff16815260200161135d61ffff16815260200161022361ffff1681526020016104c561ffff168152602001609961ffff16815260200161086c61ffff168152602001610a1661ffff16815260200161122961ffff16815260200161143261ffff16815260200161035961ffff168152602001610cd161ffff16815260200161074e61ffff168152602001610ee061ffff16815260200161160561ffff168152602001610adf61ffff1681526020016108a061ffff168152602001610cb161ffff1681526020016106ef61ffff168152602001610df961ffff1681526020016110fb61ffff16815260200161072e61ffff168152602001607961ffff16815260200161070061ffff168152602001610fff61ffff168152602001610a9061ffff1681526020016112da61ffff16815260200161096f61ffff16815260200161089961ffff1681526020016101ab61ffff16815260200161091461ffff16815260200161072861ffff168152602001610b2461ffff1681526020016106ca61ffff16815260200160a261ffff16815260200161013061ffff168152602001610a1061ffff1681526020016104aa61ffff1681526020016102cc61ffff16815260200161117961ffff168152602001610f6661ffff168152602001610fdc61ffff16815260200161041461ffff16815260200161135461ffff16815260200161054761ffff16815260200161021161ffff1681526020016103ad61ffff168152602001610ece61ffff1681526020016105ff61ffff1681526020016109e461ffff16815260200161145061ffff16815260200161057c61ffff16815260200161018d61ffff1681526020016102b861ffff16815260200161115461ffff16815260200161142661ffff16815260200161091f61ffff168152602001610ceb61ffff16815260200161134461ffff168152602001610a7261ffff16815260200161027161ffff1681526020016106ab61ffff16815260200161160661ffff168152602001610c0961ffff168152602001610a0161ffff168152602001600261ffff16815260200161101361ffff1681526020016103b261ffff168152602001606c61ffff16815260200161067661ffff16815260200161011661ffff168152602001610d6761ffff16815260200161101d61ffff16815260200161121261ffff16815260200161042b61ffff1681526020016113f661ffff16815260200161090861ffff16815260200161057661ffff1681526020016104e861ffff168152602001610f1c61ffff16815260200161048261ffff16815260200161094261ffff16815260200161142361ffff16815260200161137661ffff16815260200161083f61ffff16815260200161117661ffff16815260200161072461ffff16815260200160f961ffff1681526020016102f561ffff1681526020016112fc61ffff1681526020016105ea61ffff168152602001610e5861ffff168152602001610dbf61ffff1681526020016113c861ffff16815260200161068a61ffff16815260200161157d61ffff16815260200161040961ffff168152602001610fdf61ffff168152602001610ce961ffff1681526020016105d261ffff16815260200160af61ffff1681526020016102d961ffff16815260200161055f61ffff1681526020016102d561ffff168152602001610d5161ffff16815260200161010161ffff1681526020016103ce61ffff16815260200161094361ffff16815260200161011b61ffff16815260200161083161ffff16815260200161011f61ffff16815260200161070c61ffff168152602001610e3461ffff1681526020016109a561ffff168152602001610af361ffff1681526020016112af61ffff16815260200161035061ffff168152602001610f8a61ffff1681526020016105d161ffff1681526020016111b561ffff16815260200161066661ffff168152602001610bcf61ffff16815260200161023761ffff168152602001610c6561ffff16815260200161143f61ffff16815260200161022d61ffff1681526020016102b761ffff168152602001600461ffff168152602001610ae661ffff168152602001610a4161ffff168152602001610f4a61ffff16815260200161149661ffff168152602001610cf761ffff168152602001610cff61ffff16815260200161151761ffff16815260200161087f61ffff16815260200161067261ffff168152602001610fc761ffff168152602001610a8361ffff16815260200161085261ffff16815260200161014c61ffff168152602001610d7161ffff168152602001610ae461ffff16815260200161141861ffff168152602001606d61ffff1681526020016101ad61ffff16815260200161080e61ffff16815260200161037261ffff168152602001610b6161ffff16815260200161036361ffff168152602001609661ffff16815260200161034161ffff16815260200161119961ffff168152602001610aff61ffff1681526020016115b361ffff16815260200161108b61ffff16815260200161147761ffff16815260200161111261ffff16815260200161142861ffff16815260200161114561ffff16815260200160e661ffff16815260200161114161ffff16815260200161106e61ffff16815260200161096861ffff16815260200161069961ffff168152602001610d9761ffff1681526020016101af61ffff1681526020016115be61ffff168152602001610a2661ffff1681526020016101e861ffff1681526020016111f661ffff16815260200161133b61ffff168152602001610cb661ffff1681526020016106a061ffff16815260200161091361ffff16815260200161068361ffff16815260200161072f61ffff16815260200161120961ffff16815260200160b161ffff16815260200161137961ffff16815260200161104861ffff16815260200161129261ffff168152602001610a3161ffff16815260200161017f61ffff16815260200161095361ffff168152602001610b1d61ffff168152602001610ec161ffff16815260200161080561ffff1681526020016110a161ffff16815260200161026061ffff16815260200161034861ffff16815260200161024561ffff16815260200161151861ffff16815260200161139a61ffff16815260200161044761ffff16815260200161142d61ffff16815260200161137c61ffff1681526020016106c261ffff16815260200161155b61ffff16815260200161017961ffff1681526020016101be61ffff168152602001610f0161ffff168152602001610b5061ffff16815260200161032161ffff1681526020016112f461ffff1681526020016108b461ffff1681526020016111d561ffff168152602001610efc61ffff1681526020016106c861ffff16815260200161093261ffff16815260200161156d61ffff1681526020016102ab61ffff168152602001610f5c61ffff168152602001610c6a61ffff16815260200161139c61ffff16815260200161011e61ffff16815260200161109361ffff1681526020016115e561ffff168152602001610ead61ffff16815260200161143061ffff1681526020016103cc61ffff168152602001610f6561ffff168152602001610d3261ffff16815260200161102361ffff16815260200161074d61ffff16815260200161067161ffff168152602001610f3a61ffff16815260200161076861ffff16815260200161040361ffff168152602001610a3661ffff168152602001610a6d61ffff1681526020016106ce61ffff16815260200161037e61ffff16815260200161109d61ffff168152602001610d6e61ffff16815260200161075f61ffff16815260200161086661ffff168152602001610b2061ffff16815260200161125b61ffff16815260200161039561ffff16815260200161066c61ffff1681526020016108c661ffff1681526020016110e061ffff16815260200161148f61ffff1681526020016109a261ffff16815260200161156a61ffff1681526020016103b361ffff16815260200161053861ffff168152602001610c9661ffff1681526020016101cb61ffff168152602001610f0761ffff16815260200161098c61ffff168152602001610ea361ffff16815250600a906103a662002bce9291906200314a565b5060405180610c80016040528061095c61ffff1681526020016102bb61ffff168152602001610f6361ffff1681526020016106b061ffff16815260200161087c61ffff16815260200161016261ffff16815260200161084c61ffff168152602001610a1c61ffff1681526020016104e661ffff1681526020016101a461ffff168152602001610a9a61ffff16815260200161098d61ffff16815260200161062e61ffff16815260200161124061ffff1681526020016106bc61ffff16815260200161133f61ffff168152602001608e61ffff1681526020016108e961ffff16815260200161116361ffff1681526020016114b561ffff16815260200161130c61ffff1681526020016113a361ffff16815260200161014e61ffff16815260200161153f61ffff1681526020016115cd61ffff16815260200161129461ffff1681526020016115d961ffff168152602001602261ffff168152602001610b9861ffff16815260200161039361ffff168152602001610fe861ffff168152602001610ea661ffff1681526020016101c461ffff168152602001610b4d61ffff16815260200161080061ffff16815260200161048e61ffff168152602001610b9561ffff16815260200161049261ffff168152602001610a4661ffff1681526020016105f161ffff16815260200161013361ffff168152602001610bc661ffff1681526020016113ec61ffff168152602001604461ffff168152602001610ddd61ffff1681526020016103a961ffff168152602001610ec061ffff16815260200161136461ffff168152602001610f7c61ffff168152602001601b61ffff16815260200161149561ffff16815260200161112561ffff16815260200161104461ffff168152602001610c0761ffff16815260200161092961ffff16815260200161049b61ffff16815260200161094661ffff16815260200161052061ffff16815260200161056861ffff1681526020016104a061ffff16815260200161140361ffff168152602001610f1561ffff168152602001610c1161ffff16815260200161103861ffff16815260200161133661ffff1681526020016106ac61ffff1681526020016104f261ffff16815260200161089c61ffff16815260200161094161ffff168152602001610fce61ffff16815260200161020461ffff16815260200161014461ffff1681526020016110b461ffff168152602001605b61ffff16815260200161103b61ffff1681526020016114ea61ffff168152602001610bb161ffff168152602001610d7f61ffff1681526020016115cb61ffff16815260200161096b61ffff168152602001610d5361ffff16815260200161154361ffff16815260200161078661ffff168152602001610dc661ffff168152602001610bd061ffff16815260200161072661ffff1681526020016111c961ffff168152602001601961ffff168152602001610edb61ffff168152602001610cdd61ffff16815260200161112661ffff1681526020016103c461ffff16815260200161134761ffff168152602001610d6d61ffff1681526020016101e761ffff16815260200161095f61ffff168152602001610d9961ffff16815260200161035161ffff1681526020016108e261ffff16815260200161110d61ffff16815250600b90606462003095929190620031a2565b50348015620030a357600080fd5b506040518060400160405280601681526020017f436172647320416761696e73742048756d616e697479000000000000000000008152506040518060400160405280600381526020017f4341480000000000000000000000000000000000000000000000000000000000815250816000908051906020019062003128929190620031fa565b50806001908051906020019062003141929190620031fa565b5050506200330f565b8280548282559060005260206000209081019282156200318f579160200282015b828111156200318e578251829061ffff169055916020019190600101906200316b565b5b5090506200319e91906200328b565b5090565b828054828255906000526020600020908101928215620031e7579160200282015b82811115620031e6578251829061ffff16905591602001919060010190620031c3565b5b509050620031f691906200328b565b5090565b8280546200320890620032aa565b90600052602060002090601f0160209004810192826200322c576000855562003278565b82601f106200324757805160ff191683800117855562003278565b8280016001018555821562003278579182015b82811115620032775782518255916020019190600101906200325a565b5b5090506200328791906200328b565b5090565b5b80821115620032a65760008160009055506001016200328c565b5090565b60006002820490506001821680620032c357607f821691505b60208210811415620032da57620032d9620032e0565b5b50919050565b7f4e487b7100000000000000000000000000000000000000000000000000000000600052602260045260246000fd5b612d28806200331f6000396000f3fe60806040526004361061012a5760003560e01c806370a08231116100ab578063a9ca90d11161006f578063a9ca90d114610409578063b88d4fde14610446578063c87b56dd1461046f578063cb361c5d146104ac578063d082e381146104d7578063e985e9c5146105025761012a565b806370a08231146102fe57806384316a2d1461033b57806395d89b4114610378578063a22cb465146103a3578063a4d64ac7146103cc5761012a565b806323b872dd116100f257806323b872dd1461021957806332d1deaf1461024257806342842e0e1461026d5780634afbd678146102965780636352211e146102c15761012a565b806301ffc9a71461012f57806306fdde031461016c578063081812fc14610197578063095ea7b3146101d45780630a250eab146101fd575b600080fd5b34801561013b57600080fd5b5061015660048036038101906101519190611d6f565b61053f565b6040516101639190612198565b60405180910390f35b34801561017857600080fd5b50610181610621565b60405161018e91906121b3565b60405180910390f35b3480156101a357600080fd5b506101be60048036038101906101b99190611dc1565b6106b3565b6040516101cb9190612131565b60405180910390f35b3480156101e057600080fd5b506101fb60048036038101906101f69190611d33565b610738565b005b61021760048036038101906102129190611bc8565b610850565b005b34801561022557600080fd5b50610240600480360381019061023b9190611c2d565b610923565b005b34801561024e57600080fd5b50610257610983565b60405161026491906123f5565b60405180910390f35b34801561027957600080fd5b50610294600480360381019061028f9190611c2d565b610989565b005b3480156102a257600080fd5b506102ab6109a9565b6040516102b891906123f5565b60405180910390f35b3480156102cd57600080fd5b506102e860048036038101906102e39190611dc1565b6109af565b6040516102f59190612131565b60405180910390f35b34801561030a57600080fd5b5061032560048036038101906103209190611bc8565b610a61565b60405161033291906123f5565b60405180910390f35b34801561034757600080fd5b50610362600480360381019061035d9190611dc1565b610b19565b60405161036f91906123f5565b60405180910390f35b34801561038457600080fd5b5061038d610b3d565b60405161039a91906121b3565b60405180910390f35b3480156103af57600080fd5b506103ca60048036038101906103c59190611cf7565b610bcf565b005b3480156103d857600080fd5b506103f360048036038101906103ee9190611dc1565b610d50565b60405161040091906123f5565b60405180910390f35b34801561041557600080fd5b50610430600480360381019061042b9190611dc1565b610d74565b60405161043d91906123f5565b60405180910390f35b34801561045257600080fd5b5061046d60048036038101906104689190611c7c565b610ed7565b005b34801561047b57600080fd5b5061049660048036038101906104919190611dc1565b610f39565b6040516104a391906121b3565b60405180910390f35b3480156104b857600080fd5b506104c1610fe0565b6040516104ce91906123f5565b60405180910390f35b3480156104e357600080fd5b506104ec610fe6565b6040516104f991906123f5565b60405180910390f35b34801561050e57600080fd5b5061052960048036038101906105249190611bf1565b610fec565b6040516105369190612198565b60405180910390f35b60007f80ac58cd000000000000000000000000000000000000000000000000000000007bffffffffffffffffffffffffffffffffffffffffffffffffffffffff1916827bffffffffffffffffffffffffffffffffffffffffffffffffffffffff1916148061060a57507f5b5e139f000000000000000000000000000000000000000000000000000000007bffffffffffffffffffffffffffffffffffffffffffffffffffffffff1916827bffffffffffffffffffffffffffffffffffffffffffffffffffffffff1916145b8061061a575061061982611080565b5b9050919050565b6060600080546106309061261a565b80601f016020809104026020016040519081016040528092919081815260200182805461065c9061261a565b80156106a95780601f1061067e576101008083540402835291602001916106a9565b820191906000526020600020905b81548152906001019060200180831161068c57829003601f168201915b5050505050905090565b60006106be826110ea565b6106fd576040517f08c379a00000000000000000000000000000000000000000000000000000000081526004016106f490612335565b60405180910390fd5b6004600083815260200190815260200160002060009054906101000a900473ffffffffffffffffffffffffffffffffffffffff169050919050565b6000610743826109af565b90508073ffffffffffffffffffffffffffffffffffffffff168373ffffffffffffffffffffffffffffffffffffffff1614156107b4576040517f08c379a00000000000000000000000000000000000000000000000000000000081526004016107ab90612395565b60405180910390fd5b8073ffffffffffffffffffffffffffffffffffffffff166107d3611156565b73ffffffffffffffffffffffffffffffffffffffff1614806108025750610801816107fc611156565b610fec565b5b610841576040517f08c379a0000000000000000000000000000000000000000000000000000000008152600401610838906122b5565b60405180910390fd5b61084b838361115e565b505050565b60075460065410610896576040517f08c379a000000000000000000000000000000000000000000000000000000000815260040161088d90612295565b60405180910390fd5b6009543410156108db576040517f08c379a00000000000000000000000000000000000000000000000000000000081526004016108d2906121f5565b60405180910390fd5b60005b60085481101561091f576108f482600654611217565b600660008154809291906109079061267d565b919050555080806109179061267d565b9150506108de565b5050565b61093461092e611156565b826113e5565b610973576040517f08c379a000000000000000000000000000000000000000000000000000000000815260040161096a906123d5565b60405180910390fd5b61097e8383836114c3565b505050565b60075481565b6109a483838360405180602001604052806000815250610ed7565b505050565b60085481565b6000806002600084815260200190815260200160002060009054906101000a900473ffffffffffffffffffffffffffffffffffffffff169050600073ffffffffffffffffffffffffffffffffffffffff168173ffffffffffffffffffffffffffffffffffffffff161415610a58576040517f08c379a0000000000000000000000000000000000000000000000000000000008152600401610a4f906122f5565b60405180910390fd5b80915050919050565b60008073ffffffffffffffffffffffffffffffffffffffff168273ffffffffffffffffffffffffffffffffffffffff161415610ad2576040517f08c379a0000000000000000000000000000000000000000000000000000000008152600401610ac9906122d5565b60405180910390fd5b600360008373ffffffffffffffffffffffffffffffffffffffff1673ffffffffffffffffffffffffffffffffffffffff168152602001908152602001600020549050919050565b600b8181548110610b2957600080fd5b906000526020600020016000915090505481565b606060018054610b4c9061261a565b80601f0160208091040260200160405190810160405280929190818152602001828054610b789061261a565b8015610bc55780601f10610b9a57610100808354040283529160200191610bc5565b820191906000526020600020905b815481529060010190602001808311610ba857829003601f168201915b5050505050905090565b610bd7611156565b73ffffffffffffffffffffffffffffffffffffffff168273ffffffffffffffffffffffffffffffffffffffff161415610c45576040517f08c379a0000000000000000000000000000000000000000000000000000000008152600401610c3c90612255565b60405180910390fd5b8060056000610c52611156565b73ffffffffffffffffffffffffffffffffffffffff1673ffffffffffffffffffffffffffffffffffffffff16815260200190815260200160002060008473ffffffffffffffffffffffffffffffffffffffff1673ffffffffffffffffffffffffffffffffffffffff16815260200190815260200160002060006101000a81548160ff0219169083151502179055508173ffffffffffffffffffffffffffffffffffffffff16610cff611156565b73ffffffffffffffffffffffffffffffffffffffff167f17307eab39ab6107e8899845ad3d59bd9653f200f220920489ca2b5937696c3183604051610d449190612198565b60405180910390a35050565b600a8181548110610d6057600080fd5b906000526020600020016000915090505481565b60006007548210610dba576040517f08c379a0000000000000000000000000000000000000000000000000000000008152600401610db1906123b5565b60405180910390fd5b6111d9821480610dcb5750610fd082145b15610dd95760039050610ed2565b60005b600a80549050811015610e525782600a8281548110610e24577f4e487b7100000000000000000000000000000000000000000000000000000000600052603260045260246000fd5b90600052602060002001541415610e3f576001915050610ed2565b8080610e4a9061267d565b915050610ddc565b5060005b600b80549050811015610ecc5782600b8281548110610e9e577f4e487b7100000000000000000000000000000000000000000000000000000000600052603260045260246000fd5b90600052602060002001541415610eb9576002915050610ed2565b8080610ec49061267d565b915050610e56565b50600090505b919050565b610ee8610ee2611156565b836113e5565b610f27576040517f08c379a0000000000000000000000000000000000000000000000000000000008152600401610f1e906123d5565b60405180910390fd5b610f338484848461171f565b50505050565b6060610f44826110ea565b610f83576040517f08c379a0000000000000000000000000000000000000000000000000000000008152600401610f7a90612375565b60405180910390fd5b6000610f8d61177b565b90506000815111610fad5760405180602001604052806000815250610fd8565b80610fb78461179b565b604051602001610fc892919061210d565b6040516020818303038152906040525b915050919050565b60095481565b60065481565b6000600560008473ffffffffffffffffffffffffffffffffffffffff1673ffffffffffffffffffffffffffffffffffffffff16815260200190815260200160002060008373ffffffffffffffffffffffffffffffffffffffff1673ffffffffffffffffffffffffffffffffffffffff16815260200190815260200160002060009054906101000a900460ff16905092915050565b60007f01ffc9a7000000000000000000000000000000000000000000000000000000007bffffffffffffffffffffffffffffffffffffffffffffffffffffffff1916827bffffffffffffffffffffffffffffffffffffffffffffffffffffffff1916149050919050565b60008073ffffffffffffffffffffffffffffffffffffffff166002600084815260200190815260200160002060009054906101000a900473ffffffffffffffffffffffffffffffffffffffff1673ffffffffffffffffffffffffffffffffffffffff1614159050919050565b600033905090565b816004600083815260200190815260200160002060006101000a81548173ffffffffffffffffffffffffffffffffffffffff021916908373ffffffffffffffffffffffffffffffffffffffff160217905550808273ffffffffffffffffffffffffffffffffffffffff166111d1836109af565b73ffffffffffffffffffffffffffffffffffffffff167f8c5be1e5ebec7d5bd14f71427d1e84f3dd0314c0f7b2291e5b200ac8c7c3b92560405160405180910390a45050565b600073ffffffffffffffffffffffffffffffffffffffff168273ffffffffffffffffffffffffffffffffffffffff161415611287576040517f08c379a000000000000000000000000000000000000000000000000000000000815260040161127e90612315565b60405180910390fd5b611290816110ea565b156112d0576040517f08c379a00000000000000000000000000000000000000000000000000000000081526004016112c790612215565b60405180910390fd5b6112dc60008383611948565b6001600360008473ffffffffffffffffffffffffffffffffffffffff1673ffffffffffffffffffffffffffffffffffffffff168152602001908152602001600020600082825461132c91906124a9565b92505081905550816002600083815260200190815260200160002060006101000a81548173ffffffffffffffffffffffffffffffffffffffff021916908373ffffffffffffffffffffffffffffffffffffffff160217905550808273ffffffffffffffffffffffffffffffffffffffff16600073ffffffffffffffffffffffffffffffffffffffff167fddf252ad1be2c89b69c2b068fc378daa952ba7f163c4a11628f55a4df523b3ef60405160405180910390a45050565b60006113f0826110ea565b61142f576040517f08c379a000000000000000000000000000000000000000000000000000000000815260040161142690612275565b60405180910390fd5b600061143a836109af565b90508073ffffffffffffffffffffffffffffffffffffffff168473ffffffffffffffffffffffffffffffffffffffff1614806114a957508373ffffffffffffffffffffffffffffffffffffffff16611491846106b3565b73ffffffffffffffffffffffffffffffffffffffff16145b806114ba57506114b98185610fec565b5b91505092915050565b8273ffffffffffffffffffffffffffffffffffffffff166114e3826109af565b73ffffffffffffffffffffffffffffffffffffffff1614611539576040517f08c379a000000000000000000000000000000000000000000000000000000000815260040161153090612355565b60405180910390fd5b600073ffffffffffffffffffffffffffffffffffffffff168273ffffffffffffffffffffffffffffffffffffffff1614156115a9576040517f08c379a00000000000000000000000000000000000000000000000000000000081526004016115a090612235565b60405180910390fd5b6115b4838383611948565b6115bf60008261115e565b6001600360008573ffffffffffffffffffffffffffffffffffffffff1673ffffffffffffffffffffffffffffffffffffffff168152602001908152602001600020600082825461160f9190612530565b925050819055506001600360008473ffffffffffffffffffffffffffffffffffffffff1673ffffffffffffffffffffffffffffffffffffffff168152602001908152602001600020600082825461166691906124a9565b92505081905550816002600083815260200190815260200160002060006101000a81548173ffffffffffffffffffffffffffffffffffffffff021916908373ffffffffffffffffffffffffffffffffffffffff160217905550808273ffffffffffffffffffffffffffffffffffffffff168473ffffffffffffffffffffffffffffffffffffffff167fddf252ad1be2c89b69c2b068fc378daa952ba7f163c4a11628f55a4df523b3ef60405160405180910390a4505050565b61172a8484846114c3565b6117368484848461194d565b611775576040517f08c379a000000000000000000000000000000000000000000000000000000000815260040161176c906121d5565b60405180910390fd5b50505050565b6060604051806080016040528060518152602001612ca260519139905090565b606060008214156117e3576040518060400160405280600181526020017f30000000000000000000000000000000000000000000000000000000000000008152509050611943565b600082905060005b600082146118155780806117fe9061267d565b915050600a8261180e91906124ff565b91506117eb565b60008167ffffffffffffffff811115611857577f4e487b7100000000000000000000000000000000000000000000000000000000600052604160045260246000fd5b6040519080825280601f01601f1916602001820160405280156118895781602001600182028036833780820191505090505b5090505b6000851461193c576001826118a29190612530565b9150600a856118b191906126c6565b60306118bd91906124a9565b60f81b8183815181106118f9577f4e487b7100000000000000000000000000000000000000000000000000000000600052603260045260246000fd5b60200101907effffffffffffffffffffffffffffffffffffffffffffffffffffffffffffff1916908160001a905350600a8561193591906124ff565b945061188d565b8093505050505b919050565b505050565b600061196e8473ffffffffffffffffffffffffffffffffffffffff16611ae4565b15611ad7578373ffffffffffffffffffffffffffffffffffffffff1663150b7a02611997611156565b8786866040518563ffffffff1660e01b81526004016119b9949392919061214c565b602060405180830381600087803b1580156119d357600080fd5b505af1925050508015611a0457506040513d601f19601f82011682018060405250810190611a019190611d98565b60015b611a87573d8060008114611a34576040519150601f19603f3d011682016040523d82523d6000602084013e611a39565b606091505b50600081511415611a7f576040517f08c379a0000000000000000000000000000000000000000000000000000000008152600401611a76906121d5565b60405180910390fd5b805181602001fd5b63150b7a0260e01b7bffffffffffffffffffffffffffffffffffffffffffffffffffffffff1916817bffffffffffffffffffffffffffffffffffffffffffffffffffffffff191614915050611adc565b600190505b949350505050565b600080823b905060008111915050919050565b6000611b0a611b0584612435565b612410565b905082815260208101848484011115611b2257600080fd5b611b2d8482856125d8565b509392505050565b600081359050611b4481612c45565b92915050565b600081359050611b5981612c5c565b92915050565b600081359050611b6e81612c73565b92915050565b600081519050611b8381612c73565b92915050565b600082601f830112611b9a57600080fd5b8135611baa848260208601611af7565b91505092915050565b600081359050611bc281612c8a565b92915050565b600060208284031215611bda57600080fd5b6000611be884828501611b35565b91505092915050565b60008060408385031215611c0457600080fd5b6000611c1285828601611b35565b9250506020611c2385828601611b35565b9150509250929050565b600080600060608486031215611c4257600080fd5b6000611c5086828701611b35565b9350506020611c6186828701611b35565b9250506040611c7286828701611bb3565b9150509250925092565b60008060008060808587031215611c9257600080fd5b6000611ca087828801611b35565b9450506020611cb187828801611b35565b9350506040611cc287828801611bb3565b925050606085013567ffffffffffffffff811115611cdf57600080fd5b611ceb87828801611b89565b91505092959194509250565b60008060408385031215611d0a57600080fd5b6000611d1885828601611b35565b9250506020611d2985828601611b4a565b9150509250929050565b60008060408385031215611d4657600080fd5b6000611d5485828601611b35565b9250506020611d6585828601611bb3565b9150509250929050565b600060208284031215611d8157600080fd5b6000611d8f84828501611b5f565b91505092915050565b600060208284031215611daa57600080fd5b6000611db884828501611b74565b91505092915050565b600060208284031215611dd357600080fd5b6000611de184828501611bb3565b91505092915050565b611df381612564565b82525050565b611e0281612576565b82525050565b6000611e1382612466565b611e1d818561247c565b9350611e2d8185602086016125e7565b611e36816127b3565b840191505092915050565b6000611e4c82612471565b611e56818561248d565b9350611e668185602086016125e7565b611e6f816127b3565b840191505092915050565b6000611e8582612471565b611e8f818561249e565b9350611e9f8185602086016125e7565b80840191505092915050565b6000611eb860328361248d565b9150611ec3826127c4565b604082019050919050565b6000611edb60228361248d565b9150611ee682612813565b604082019050919050565b6000611efe601c8361248d565b9150611f0982612862565b602082019050919050565b6000611f2160248361248d565b9150611f2c8261288b565b604082019050919050565b6000611f4460198361248d565b9150611f4f826128da565b602082019050919050565b6000611f67602c8361248d565b9150611f7282612903565b604082019050919050565b6000611f8a601d8361248d565b9150611f9582612952565b602082019050919050565b6000611fad60388361248d565b9150611fb88261297b565b604082019050919050565b6000611fd0602a8361248d565b9150611fdb826129ca565b604082019050919050565b6000611ff360298361248d565b9150611ffe82612a19565b604082019050919050565b600061201660208361248d565b915061202182612a68565b602082019050919050565b6000612039602c8361248d565b915061204482612a91565b604082019050919050565b600061205c60298361248d565b915061206782612ae0565b604082019050919050565b600061207f602f8361248d565b915061208a82612b2f565b604082019050919050565b60006120a260218361248d565b91506120ad82612b7e565b604082019050919050565b60006120c560158361248d565b91506120d082612bcd565b602082019050919050565b60006120e860318361248d565b91506120f382612bf6565b604082019050919050565b612107816125ce565b82525050565b60006121198285611e7a565b91506121258284611e7a565b91508190509392505050565b60006020820190506121466000830184611dea565b92915050565b60006080820190506121616000830187611dea565b61216e6020830186611dea565b61217b60408301856120fe565b818103606083015261218d8184611e08565b905095945050505050565b60006020820190506121ad6000830184611df9565b92915050565b600060208201905081810360008301526121cd8184611e41565b905092915050565b600060208201905081810360008301526121ee81611eab565b9050919050565b6000602082019050818103600083015261220e81611ece565b9050919050565b6000602082019050818103600083015261222e81611ef1565b9050919050565b6000602082019050818103600083015261224e81611f14565b9050919050565b6000602082019050818103600083015261226e81611f37565b9050919050565b6000602082019050818103600083015261228e81611f5a565b9050919050565b600060208201905081810360008301526122ae81611f7d565b9050919050565b600060208201905081810360008301526122ce81611fa0565b9050919050565b600060208201905081810360008301526122ee81611fc3565b9050919050565b6000602082019050818103600083015261230e81611fe6565b9050919050565b6000602082019050818103600083015261232e81612009565b9050919050565b6000602082019050818103600083015261234e8161202c565b9050919050565b6000602082019050818103600083015261236e8161204f565b9050919050565b6000602082019050818103600083015261238e81612072565b9050919050565b600060208201905081810360008301526123ae81612095565b9050919050565b600060208201905081810360008301526123ce816120b8565b9050919050565b600060208201905081810360008301526123ee816120db565b9050919050565b600060208201905061240a60008301846120fe565b92915050565b600061241a61242b565b9050612426828261264c565b919050565b6000604051905090565b600067ffffffffffffffff8211156124505761244f612784565b5b612459826127b3565b9050602081019050919050565b600081519050919050565b600081519050919050565b600082825260208201905092915050565b600082825260208201905092915050565b600081905092915050565b60006124b4826125ce565b91506124bf836125ce565b9250827fffffffffffffffffffffffffffffffffffffffffffffffffffffffffffffffff038211156124f4576124f36126f7565b5b828201905092915050565b600061250a826125ce565b9150612515836125ce565b92508261252557612524612726565b5b828204905092915050565b600061253b826125ce565b9150612546836125ce565b925082821015612559576125586126f7565b5b828203905092915050565b600061256f826125ae565b9050919050565b60008115159050919050565b60007fffffffff0000000000000000000000000000000000000000000000000000000082169050919050565b600073ffffffffffffffffffffffffffffffffffffffff82169050919050565b6000819050919050565b82818337600083830152505050565b60005b838110156126055780820151818401526020810190506125ea565b83811115612614576000848401525b50505050565b6000600282049050600182168061263257607f821691505b6020821081141561264657612645612755565b5b50919050565b612655826127b3565b810181811067ffffffffffffffff8211171561267457612673612784565b5b80604052505050565b6000612688826125ce565b91507fffffffffffffffffffffffffffffffffffffffffffffffffffffffffffffffff8214156126bb576126ba6126f7565b5b600182019050919050565b60006126d1826125ce565b91506126dc836125ce565b9250826126ec576126eb612726565b5b828206905092915050565b7f4e487b7100000000000000000000000000000000000000000000000000000000600052601160045260246000fd5b7f4e487b7100000000000000000000000000000000000000000000000000000000600052601260045260246000fd5b7f4e487b7100000000000000000000000000000000000000000000000000000000600052602260045260246000fd5b7f4e487b7100000000000000000000000000000000000000000000000000000000600052604160045260246000fd5b6000601f19601f8301169050919050565b7f4552433732313a207472616e7366657220746f206e6f6e20455243373231526560008201527f63656976657220696d706c656d656e7465720000000000000000000000000000602082015250565b7f496e73756666696369656e742066756e64732073656e743b20636f7374203d2060008201527f3130000000000000000000000000000000000000000000000000000000000000602082015250565b7f4552433732313a20746f6b656e20616c7265616479206d696e74656400000000600082015250565b7f4552433732313a207472616e7366657220746f20746865207a65726f2061646460008201527f7265737300000000000000000000000000000000000000000000000000000000602082015250565b7f4552433732313a20617070726f766520746f2063616c6c657200000000000000600082015250565b7f4552433732313a206f70657261746f7220717565727920666f72206e6f6e657860008201527f697374656e7420746f6b656e0000000000000000000000000000000000000000602082015250565b7f416c6c20746f6b656e732068617665206265656e20636c61696d65642e000000600082015250565b7f4552433732313a20617070726f76652063616c6c6572206973206e6f74206f7760008201527f6e6572206e6f7220617070726f76656420666f7220616c6c0000000000000000602082015250565b7f4552433732313a2062616c616e636520717565727920666f7220746865207a6560008201527f726f206164647265737300000000000000000000000000000000000000000000602082015250565b7f4552433732313a206f776e657220717565727920666f72206e6f6e657869737460008201527f656e7420746f6b656e0000000000000000000000000000000000000000000000602082015250565b7f4552433732313a206d696e7420746f20746865207a65726f2061646472657373600082015250565b7f4552433732313a20617070726f76656420717565727920666f72206e6f6e657860008201527f697374656e7420746f6b656e0000000000000000000000000000000000000000602082015250565b7f4552433732313a207472616e73666572206f6620746f6b656e2074686174206960008201527f73206e6f74206f776e0000000000000000000000000000000000000000000000602082015250565b7f4552433732314d657461646174613a2055524920717565727920666f72206e6f60008201527f6e6578697374656e7420746f6b656e0000000000000000000000000000000000602082015250565b7f4552433732313a20617070726f76616c20746f2063757272656e74206f776e6560008201527f7200000000000000000000000000000000000000000000000000000000000000602082015250565b7f546f6b656e4944206e6f6e206578697374656e742e0000000000000000000000600082015250565b7f4552433732313a207472616e736665722063616c6c6572206973206e6f74206f60008201527f776e6572206e6f7220617070726f766564000000000000000000000000000000602082015250565b612c4e81612564565b8114612c5957600080fd5b50565b612c6581612576565b8114612c7057600080fd5b50565b612c7c81612582565b8114612c8757600080fd5b50565b612c93816125ce565b8114612c9e57600080fd5b5056fe68747470733a2f2f676174657761792e70696e6174612e636c6f75642f697066732f516d62335a385761425078797159436947457534796f4e553676626e7436744d3555394546644b703663674b61362fa264697066735822122008484331e57df9ee4b81835a2be16a452f8c73beb2073b03da731d133983fbd664736f6c63430008040033",
  "linkReferences": {},
  "deployedLinkReferences": {}
}